:020000040800F2
:1000000030080020C9000008C1340008CD2E0008C7
:1000100000000000000000000000000000000000E0
:100020000000000000000000000000000B35000888
:100030000000000000000000093500080D35000830
:10004000DB00000800000000DB000008DB00000807
:10005000DB000008DB000008DB000008DB00000814
:1000600000000000DB000008DB000008DB000008E7
:10007000DB000008DB000008DB00000800000000D7
:10008000E5350008DB00000800000000DB00000888
:10009000DB000008DB000008DB000008DB000008D4
:1000A000DB000008DB000008DB000008193D000849
:1000B000DB0000080348854600F018FB00480047B5
:1000C00005580008300800200448804704480047CD
:1000D000FEE7FEE7FEE7FEE7FEE7FEE789350008FC
:1000E000B500000830B50B4601460020202201244F
:1000F00009E00D46D5409D4205D31D469540491B5C
:100100002546954040191546521E002DF1DC30BDA4
:1001100010B5202A04DB0846203AD040002110BD4B
:100120000B46D340D0402024A21A914008431946E0
:1001300010BD03460B439B0703D009E008C9121FFB
:1001400008C0042AFAD203E00B780370401C491C53
:10015000521EF9D27047D2B201E00270401C491E13
:10016000FBD270470022F6E710B513460A46044654
:100170001946FFF7F0FF204610BD421C0178401CD5
:100180000029FBD1801A704730B504460020034691
:1001900000E05B1C934203D2E05CCD5C401BF8D0D6
:1001A00030BD0321001D401E037812021A43491E70
:1001B000F9D510467047024670B54A40D30FDB07A9
:1001C00040002DD04A002AD0010E140E0002120267
:1001D0000919400A520A8418E50104465443000AEA
:1001E000120A2E045043A4194219200CC543AA1820
:1001F000120C0125AD03521C521912047F3924043C
:1002000000D0521C104301D44000491EC2B20C065B
:10021000C0092018401C4008802A02D003E00020BA
:1002200070BD40084000002900DA0020184370BD6E
:10023000420005D04200120E52428A4201DB0020E9
:100240007047C9050818704710B50022962311465B
:1002500000F04DF810BDC20FD207400040080BD08F
:10026000C10D0723DB01C91840020905400A1143EB
:10027000C208400711437047002001467047F0B59F
:100280001FB40646002082B005464024019100902C
:100290001BE0019922460F463046FFF739FF049ACA
:1002A000059B801A994110D310461946224600F04A
:1002B0002FFA361A8F410197224601200021009F14
:1002C00000F026FA38184D4100902046641E0028A0
:1002D000DFDC019B00982946324607B0F0BD0029BB
:1002E00004DA401C490001D140084000704770B456
:1002F0000024050C05D11024000402D1002921D0CE
:100300001124050E01D100020834050F01D10001AE
:10031000241D850F01D18000A41C002801DB4000B2
:10032000641C002908D020252E1B0D46F540A14055
:1003300000D001212943084301061B1B000ADB1DD5
:1003400002D5002070BC7047DB0518188018002902
:10035000F8DA401C4900F5D170BC400840007047F5
:10036000F0B507460846584087B0C00F04904800D3
:100370000E46590040084908BC1A884105D2384643
:1003800031461E4617460B460246580040081043A9
:100390004CD0300D039040055900400D490D05909B
:1003A000401A0290402872DA18030121000B090557
:1003B0000843019004980092002805D00199524208
:1003C0000020884100920190029840210A1A019968
:1003D000009800F09DF905460C466B4607CB00F0EF
:1003E000A7F9C0197141039A0E0D0023D717564083
:1003F0001A467A40164344D0049A002A2DD0029A15
:10040000012A039A15DC1205C01A9141012636050E
:10041000001C7141D20F059ED207009301920296F3
:100420002A46234600F0A4F907B0F0BD384631460D
:10043000FAE71605224A0F46B218C01AB741012141
:100440000905001C4F4100187F41114618187941D9
:10045000E20F10436D19644113E0E2076D08154384
:100460006408C2071443039A01261205C01A914179
:100470003605001C7141CE07400830434908C018BA
:1004800051412A46234600F066F9CDE7FFE704987C
:1004900001224000C117121A00238B4104983146F3
:1004A000C417381AA141EEE730B40124E4076340D1
:1004B00030BC55E730B40124E407614030BC4FE75D
:1004C0000000E0FFF0B51FB488B00B990998002434
:1004D00048400999C00F490049080991C0070B9984
:1004E0000090490049080B9109990898A6460843CD
:1004F0001CD00B990A98084318D009980124400091
:10050000420D4800410D099824050003000B2043CB
:1005100009900B980003000B20430B9050181C49C6
:100520004018002201901446104605E000200146C4
:100530000DB0F0BD032801DA034600E003239C461A
:10054000C11A0AAE0AE05F0008ADED5B4F00F75B31
:100550007D430027AA187C41491C5B1E6145F2DDE2
:10056000410004AB5A522104120C0A43240C401CD3
:100570000828DFDB019802900099704601910090F5
:10058000059B049A0799069800F0F2F8D0E700005E
:100590000DFCFFFFF0B50C465C4085B0E40FE407AE
:1005A00003944C000026640859009446490802460A
:1005B0000296224321D062460A431ED06200570DA4
:1005C0004A000E032303550D012402462C4924053D
:1005D000781B1B0B360B40182343264361460090C3
:1005E0001C46501AB44103D30098401C009002E00E
:1005F000921800985B41002803DA0020014605B0FC
:10060000F0BD0020012109050746864611E0644639
:100610001D46141BB54106D36546521BB3417446B3
:1006200007430C43A646CD074008490828439218C3
:100630005B4105460D43EAD11046184313D060468E
:10064000194650407140084306D06046101AB34125
:1006500006D20122002306E000220123DB0702E08C
:100660000122D2435310009874460105381C6141A1
:10067000029C039D0019694100F06DF8BFE700007E
:10068000FD0300004A0009030123090B1B05194360
:100690000A4B10B5520D9A4202DA0020014610BDF5
:1006A000064B34339A4203DC9A1AFFF731FD10BD32
:1006B000034BD21800F02CF810BD0000FF0300001F
:1006C000CDFBFFFF10B5002904DB0124E407404205
:1006D0008C412146002B04DB1C460123DB075242E0
:1006E000A341994200D1904210BD0000064C012563
:1006F000064E05E0E36807CC2B430C3C98471034CA
:10070000B442F7D3FFF7DAFC885B0008A85B000867
:1007100010B5202A04DB0146203A9140002010BD8C
:10072000914020239C1A0346E3401943904010BD9A
:1007300010B5202A06DBCB170846203A1041C11716
:100740000B4306E00B461341D0402024A21A9140EF
:100750000843194610BD10B5002B08DA0024401CD0
:10076000614192185B411A4301D14008400010BD1D
:10077000F0B51FB482B005460C0003D0084603F064
:10078000E9FA02E003F0E6FA203002460090214642
:100790002846FFF7BDFF049B059A04460F46184301
:1007A0001143084314D0184610431BD00098402131
:1007B0000A1A18460599FFF7ABFC05460E46009A43
:1007C00005990498FFF7A4FF084305D0012004E031
:1007D0002046394607B0F0BD0020C11705430E433F
:1007E0002C43374300990E986305401A7905E40AB3
:1007F00000220C43FD0A0A3002D500200146E9E739
:100800000105101969410C9C0D9D00196941FFF704
:10081000A2FFDFE770B58C180578401C6B075B0FF3
:1008200001D10378401C2A1106D10278401C03E054
:1008300006780E70401C491C5B1EF9D12B0705D4AD
:100840000023521E0DD40B70491CFAE70378401C9C
:10085000CB1A921C03E01D780D70491C5B1C521EC4
:10086000F9D5A142D8D3002070BD0000F8B50446E8
:1008700000200090206881688907890F012905D12F
:100880000168C9072CD1C168090429D48168154AB7
:10089000102611400125002915D181682943816066
:1008A000124811490068FFF71DFC00E0401E00904F
:1008B0000028FBD100F03CFF07460CE000F038FFB9
:1008C000C01B022807D9606C30436064A06C2843C9
:1008D000A0640120F8BD20680068C043C007EDD1C6
:1008E0000020F8BD1700008040420F007401002076
:1008F000F7B5002416460546570809E00198A100FF
:100900000818FFF74EFC1021C84129680860641CD4
:10091000A742F3D8F00704D00198A100405A2968F3
:10092000088028680068FEBDFEB5054600249008D2
:1009300016460F4601900EE0A000C0190090FFF788
:1009400030FC00BA010A00980902C0780143286807
:1009500001600198641CA042EED8B00721D0B00716
:10096000800F012803D1A1002A68795C1170022848
:1009700008D1A000C1194878097800020843296805
:1009800040BA0880F04380070BD1A000C01941781D
:100990000278090211432A6849BA118029688078CF
:1009A000087028680068FEBD0020C0437047000042
:1009B000F0B401784A2901D04B291AD1C178827844
:1009C00009021143407800220C4B4409D5005E5DBA
:1009D000B4420AD1ED186D68002D06D0C006C00ED5
:1009E000D200D2185268F0BC1047521CD2B2062A6C
:1009F000ECD3F0BC0020C04370470000340000205E
:100A0000024610B50020130003F0BBF90D10140BC3
:100A100008171A0B0B0B0B1E210C0B00084603F0DA
:100A200037FE10BD084603F065FE10BD084603F012
:100A3000A7FE10BD03F0AEFF10BD03F03FFE10BDDA
:100A4000C8B203F04FFF10BD04F0A8F810BD03F0CA
:100A5000C7FF10BD70470000010010B5054805D064
:100A6000012902D104F056F9002010BD04F008F964
:100A7000FAE70000FFFFFFFF10B50024002804D0B4
:100A8000012806D002280AD106E0084604F0EAF957
:100A900005E004F0DBF902E0002004F0CBF9204689
:100AA00010BD000010B50421034801F0FDFF00F067
:100AB0003FFE0249486010BD34020020640100205E
:100AC00010B5084C207800280BD000F031FE61688A
:100AD000401AA168884204D900200349207009689F
:100AE000886310BD6401002034020020010010B5AD
:100AF000024802D104F0C0F9002010BDFFFFFFFF43
:100B000010B5642000F052FD04F048FC002801D02C
:100B10000DA00AE004F08AFC002801D012A004E035
:100B200004F0D0FC002803D015A000F05DFA10BD41
:100B3000012003F0A4FD03221146B02004F00EFDB5
:100B4000002003F09CFD10BD6472765F68646D69DF
:100B50005F6964656E746966795F63686970206651
:100B600061696C65640000006472765F68646D6939
:100B70005F696E6974206661696C656400000000DD
:100B80006472765F68646D695F696E69745F6564DD
:100B90006964206661696C656400000070B5054693
:100BA0000C4616A000F020FA002D07D1200AFF28DD
:100BB00006D00C281FD0204604F0AEFD002070BDEA
:100BC0001548201817D02146030003F0DAF80B0768
:100BD000070707070708070B07071000EEE70421C0
:100BE000012001E00421022000F09EF9E6E70BA0BD
:100BF00000F0FAF9E2E704F0EFFDDFE74472765F18
:100C000049525F434D445F48616E646C65722030A9
:100C10007825780D0A000000FF00FFFF696E7661FD
:100C20006C6964206B65795B307825785D210D0AED
:100C30000000000010B50C21014801F0C1FD10BDFD
:100C40007402002070B50E46054600F0A9F8002891
:100C500070D0454CE068854201D3281A01E0301A73
:100C600040190022642803D322702281628160E04F
:100C700003460A3B0121052B05D8207823898140B2
:100C80008B43238111E00346103B042B05D22078CF
:100C9000238981401943218107E01438052806D8AB
:100CA00020786389814019436181401C207020783D
:100CB0000B283ED3608921890004084320612270FB
:100CC000A2802A4A811A90423CD015DC284A811A17
:100CD000904243D006DC2749401830D0FF388128A5
:100CE00020D138E0244808182FD003210902884277
:100CF00018D1FA20C04320E0204B2148CA1A99425B
:100D000019D007DCFF39813922D0C1420AD1F42041
:100D1000C04312E0101824D01A49C84202D1FE2064
:100D2000C0430AE018A000F05FF9A188202000F07D
:100D30002FF9E56070BDFD20C043A080F5E7FC20E1
:100D4000C043FAE7FB20C043F7E7F520C043F4E7D0
:100D5000F720C043F1E7F820C043EEE7F620C04398
:100D6000EBE7F920C043E8E7000000209300000112
:100D700013060000EDFCFFFF000580FF800100036B
:100D8000000280FF1200D4FD696E76616C696420F8
:100D9000495220525820636F64652E0D0A000000EE
:100DA000F8B53C4C8C466369984201D3C21A01E005
:100DB000C91A0A1811467D390F2905D8002161701A
:100DC000E170E361A16146E0324D11466E78AF6992
:100DD0000A390125B540761CF6B2052902D8AF4381
:100DE000A76105E011461439052903D83D43A561E3
:100DF00066700EE011466F3904290AD80121A170EE
:100E0000E1698B4201D35A1A02E06246511ACA18AC
:100E1000E361617820291ED31E4A18321178537875
:100E2000CB18FF2B31D19378D2789A18FF2A2CD186
:100E300018020143E1800120E0700020607016A0DC
:100E400000F0D2F8E188202000F04CF9E188202061
:100E500000F09EF817E0A178002916D00021A170BB
:100E6000E178002911D01349511814290DD8E188CF
:100E7000202000F037F9E188202000F089F8E1888F
:100E80000DA000F0B1F80020F8BD60610020C04363
:100E9000F8BD0000000000204472765F49525F4EAA
:100EA00045435F4465636F64655B307825785D0D0D
:100EB0000A000000DCFBFFFF4472765F49525F4E80
:100EC00045435F4465636F64652072657065617456
:100ED0005B307825785D0D0A0000000010B5002217
:100EE0000421044800F01DFC00F022FC02490860C7
:100EF00010BD0000000400482000002010B500F0E4
:100F000017FC074C2168401A7D21C900884206D38E
:100F100000F00EFC20600421024800F0FEFB10BD32
:100F2000200000200004004810B50024012802D051
:100F3000022807D103E0042004F08CFB02E0042027
:100F400004F0A6FB204610BD10B5012291030F4806
:100F500000F0E7FB09240121E406002249022046B3
:100F600000F0DFFBFF2100220131204600F0D9FB19
:100F7000012100228902204600F0D3FB012100223A
:100F8000C902204600F0CDFB10BD0000000400485F
:100F900013B582B04A2269460A704870087B88708F
:100FA000487B094CC8702078820080180019042200
:100FB000801CFFF7BEF820781421401CFFF792F840
:100FC0002170002004B010BDCA03002010B56621B6
:100FD0000448FFF7C7F8034866216630FFF7C2F8F8
:100FE00010BD0000640300200FB410B540210F486D
:100FF000FFF7B8F803AB40210C48029A02F094FEC8
:101000000A48FFF7BAF80006000E0AD0074A0A217C
:101010001154401CC2B20023DB430449044801F0D0
:10102000F0FE10BC08BC04B01847000024030020E8
:10103000B402002070B5274C002305222146264823
:1010400001F06CFE002816D104222146234800F04E
:1010500019FA2179C0B281420DD12046FFF7A8FCD0
:10106000002808DD204601784A2904D16D2101704D
:10107000002100F055F81A4D16486C7829788C42FA
:101080000ED0A100611849190422891CFFF751F8FC
:10109000601C1421FFF726F869700E48FFF788FCE2
:1010A0000F4D0C48663D6C7829788C4210D0A10019
:1010B000611849190422891CFFF73BF8601C1421B0
:1010C000FFF710F869700021C943024800F028F8C2
:1010D00070BD00002C000020B4020020C4010020DC
:1010E000CA03002013B582B0552269460A704870C1
:1010F000087B8870487B094CC87020788200801873
:1011000000190422801CFFF714F820781421401CD9
:10111000FEF7E8FF2170002004B010BD640300203A
:1011200070B50D46044601460422054800F0AAF9B0
:1011300020712B4605222146024801F062FE70BD57
:10114000C4010020B402002010B5024800F06AF982
:1011500010BD000078010020F8B500250446403499
:1011600000952278012A39D00122227003689E68F6
:10117000760767D4384F4E68BE424DD09E6A0F78CE
:10118000BA4016439E620123826B1B079A421FD00E
:10119000012A1DD0022A1BD0032A19D0042A17D0F5
:1011A000052A15D0062A13D0072A11D002688B68A9
:1011B00056697607760FB3420AD05369DB08DB0025
:1011C0005361006842690B7A5B075B0F1A43426107
:1011D0000A68102A04D0112A02D038E00220F8BD93
:1011E0001E488368102A07D00122920513438360AA
:1011F0000868102803D02AE00122D205F6E7194832
:1012000017490068FEF76EFF0A21484300E0401EC0
:1012100000900028FBD11AE0986A0E78B240904303
:1012200098620968102901D0112910D10B488268F1
:10123000102904D0012189058A43826007E0012139
:10124000C905F9E7416C20221143416401250020C2
:1012500020702846F8BD0000011000000027014062
:1012600040420F00740100200068006C70470000CD
:10127000F8B500250446002803D0606C002802D091
:1012800008E00120F8BD0020A06440210855204658
:1012900000F0A8F8606C1022C006002870DB2068FF
:1012A000816849076CD4616C130199430223194387
:1012B000616481688907890F012905D10168C9071F
:1012C0000FD1C16809040CD4C16818239943A368DD
:1012D0001943C1602068016963688900890819435E
:1012E00001612068C1683D4B1940C160A069E16996
:1012F0008003C9030843216A4B031843636B012B26
:1013000002D001231B0300E000231843E3681843C5
:101310002369022B09D000231843236B666A5B0004
:1013200018430123012E02D00AE00423F4E7002928
:1013300027D0616C202631436164A16C1943A164FC
:10134000A16A0E46FF3EC23E02D0E66A3143084320
:101350002168CE680643CE600126A16B3607B142F4
:1013600013D0012911D002290FD003290DD004294F
:101370000BD0052909D0062907D0072905D010E090
:1013800028E0012109040843DAE721684E69F608DC
:10139000F6004E6121684E69278F7F077F0F3E431D
:1013A0004E612168C9680E4E3140814207D100204C
:1013B000A064606C80088000401C606408E0606C81
:1013C0000221884310436064A06C1843A064012587
:1013D0002846F8BD606C10436064F8E71902FEFF10
:1013E000E7FF3F8300B500680C4987B0884212D1FF
:1013F0000B48826941150A43826180690840059063
:1014000002200090032001900020029009206946EC
:10141000C00600F0D9F807B000BD0000002401406C
:101420000010024070B50446216800208968490711
:1014300021D425464035297801291CD00121297065
:10144000E169012904D02046FFF710FA002811D1E4
:10145000616C0A4A1140FF2201321143616400218C
:10146000A164297022681C21116021688A68042304
:101470001A438A6070BD022070BD0000FEF1FFFFBC
:1014800000207047F8B504460020257F0346012D53
:101490000FD001252577022666772668B7682F4387
:1014A000B760266A012E10D0022E12D0032E14D15E
:1014B00006E00220F8BD83002668CB583360401C4C
:1014C0009042F8D32068036807E02046FFF72CFA23
:1014D00002E02046FFF70CFA0346657700202077EC
:1014E0001846F8BD10B504000DD0607F002803D168
:1014F0002077204600F024F8022060772046FFF78E
:10150000BFFF002801D0012010BD6079002814D051
:1015100020692168086121688868602290436269B7
:10152000104388602168886880229043A269104334
:10153000886001206077002010BD0020C043E8E7EC
:1015400008B500680549884207D10548426940212D
:101550000A43426140690840009008BD00300240E3
:101560000010024070B50024014620314A78022A5A
:1015700003D004218163012416E0026813680E255C
:10158000AB431360026813685B085B0013600122C1
:10159000056C1346AB40C56B6B604A7000220A7045
:1015A000416B002900D08847204670BD31B500F05E
:1015B000BFF8009C0546601C00D0641C00F0B8F821
:1015C000401BA042FAD338BDF8B500238DE00124BA
:1015D0009C40A44622407DD04C68022C01D0122CA5
:1015E0000CD1DC08A40027183C6A5D07ED0E0F261D
:1015F000AE40B4430E69AE4026433E6205685E00CD
:101600000324B4400F79A543BF07BF0FB7402F4352
:1016100007604D68012D05D0022D03D0112D01D09A
:10162000122D0ED18568CF68A543B7402F43876040
:1016300047686546AF430D79ED06ED0F9D403D438C
:101640004560C568A5438C68B4402C43C4604C68B1
:10165000E40049D5284CA56901263543A561A46954
:101660009D0834400094254CAD002F19BC689D079F
:101670002E0F0F25B540AC430925ED06A84201D138
:1016800000250FE01E4DA84201D101250AE01D4DA5
:10169000A84201D1022505E01B4DA84201D1032536
:1016A00000E00525B5402543BD60184C25684E680F
:1016B0009543F60300D51543256065684E6895434C
:1016C000B60300D515436560A5684E689543F602DC
:1016D00002D500E008E01543A560E5684E68954333
:1016E000B60200D51543E5605B1C0A681446DC4071
:1016F00000D06CE7F8BD000000100240000001407F
:101700000004004800080048000C004800040140A4
:101710000069084000D00120704742694A40426198
:101720007047002A01D081617047816270470000D4
:1017300001480068704700007001002070B5024643
:1017400040325378202B1CD11378012B19D0012360
:10175000137024245470046825689D432560046830
:1017600025681E03B5432560046825680D43256080
:10177000006801681943016020205070002010703B
:1017800070BD022070BD70B5024640325378202BE8
:101790001BD11378012B18D001241470242353700B
:1017A00003681D68A5431D6005682B680F26360277
:1017B000B3430902194329600068016821430160AD
:1017C000202050700020107070BD022070BD0000FD
:1017D00070B5040006D025464035687800260028FC
:1017E00002D005E0012070BD2E70204600F050FAB6
:1017F00024206870206801684908490001600F21B1
:101800006068090688432168086121688A680120A8
:10181000C00382438A60E1680129A16808D02122BF
:101820009202114322689160E168022902D005E02A
:101830000143F7E701212268C902516021684A6823
:101840000F4B1A434A602168CA688243CA606169C3
:1018500020690843A169090208432168C860216A18
:10186000E06908432168086020680168012211438B
:1018700001606664202068702663AE70002070BD31
:1018800000800002FFB5054604464035687883B005
:10189000202873D10C98002871D00D9800286ED0A4
:1018A000287801286AD001202870FFF741FF0746F9
:1018B000012200901923D103204601F01DFC0028CD
:1018C00076D1222068704020A870002666640C98AB
:1018D00060620D98608566630E980090019704A978
:1018E0000EC9204601F03EFB002804D0606C2E702B
:1018F000042860D05CE0618D09208002FF2905D9B1
:10190000FF22228501231B06009006E0618D2185C0
:101910000090208D0123C2B25B062046049901F09D
:10192000D9FB00970022042120460E9B01F0E4FB26
:1019300000283DD12068416A606A421C62620170E1
:10194000208D401E81B22185608D401E608500295A
:1019500021D1608D00281ED00097002280212046D2
:101960000E9B01F0C9FB002822D1608DFF2807D90A
:10197000FF22228501231B06009608E02AE01AE0D8
:10198000608D20850096208D0123C2B25B06204623
:10199000049901F09FFB608D0028C2D13A46204691
:1019A0000E9901F0CDFB002807D0606C042802D00E
:1019B000032007B0F0BD0120FBE721682020C861AB
:1019C00021684A68044B1A404A606870AE702E70F5
:1019D0000020EEE70220ECE700E800FEFFB5054638
:1019E00004464035687885B0202877D110980028C3
:1019F00075D01198002872D0287801286ED0012067
:101A00002870FFF795FE0746012200901923D103A5
:101A1000204601F071FB00287AD122206870402016
:101A2000A8700026666410986062119860856663ED
:101A30000F9A12980E99009102900397019206A9AD
:101A40000EC9204601F0C3FA002804D0606C2E7045
:101A5000042860D05CE0618D09208002FF2905D94F
:101A6000FF22228501231B06009006E0618D21855F
:101A70000090208D0123C2B25B062046069901F03A
:101A800029FB0097002204212046129B01F034FB21
:101A900000283DD12068416A606A421C6262017080
:101AA000208D401E80B22085618D491E61850028F1
:101AB00021D1608D00281ED0009700228021204671
:101AC000129B01F019FB002822D1608DFF2807D955
:101AD000FF22228501231B06009608E02AE01AE077
:101AE000608D20850096208D0123C2B25B062046C2
:101AF000069901F0EFFA608D0028C2D13A462046DF
:101B0000129901F01DFB002807D0606C042802D058
:101B1000032009B0F0BD0120FBE721682020C86147
:101B200021684A68044B1A404A606870AE702E7093
:101B30000020EEE70220ECE700E800FEFFB50546D6
:101B400004464035687883B0202876D10C98002868
:101B500074D00D98002871D0287801286DD001200C
:101B60002870FFF7E5FD0746012200901923D103F5
:101B7000204601F0C1FA002853D12120687040208E
:101B8000A870002666640C9860620D986085666394
:101B90000E980090019704A90EC9204601F064FA3E
:101BA000002804D0606C2E7004286AD039E0608D63
:101BB000FF2805D9FF22228501231B06009606E097
:101BC000608D20850096208D0123C2B25B062046E1
:101BD000049901F07FFA3A4620460E9901F0D7FAAF
:101BE000002803D0606C04284BD01AE0606A411CC6
:101BF0006162216800788862608D401E6085208D5A
:101C0000401E0004000C208524D1608D002821D0C6
:101C100000970022802120460E9B01F06DFA0028DB
:101C200002D0032007B0F0BD608DFF2807D9FF2246
:101C3000228501231B06009608E024E021E0608D48
:101C400020850096208D0123C2B25B0620460499B0
:101C500001F040FA608D0028BDD13A4620460E9929
:101C600001F06EFA0028BDD120682021C1612068F2
:101C70004268064B1A4042606970AE702E700020B8
:101C8000D0E70120CEE70220CCE7000000E800FE0C
:101C900000B500680D4987B0884214D1C02000907B
:101CA0001220019001200290032003906946084809
:101CB000FFF78AFC0748C269012189050A43C2610E
:101CC000C0690840059007B000BD00000058004002
:101CD000001400480010024002480168491C0160DD
:101CE000704700007001002010B5064801681022FE
:101CF00011430160002000F007F800F017F8002001
:101D000010BD00000020024010B5044600F056F956
:101D10007D21C900FEF7E6F900F05AFB00222146BA
:101D2000501E00F02FF8002010BD000008B50F482D
:101D30008169012211438161816911400091C26969
:101D400001040A43C261C0690022084000901146A4
:101D5000501F00F017F800221146901E00F012F8F4
:101D600000221146501E00F00DF808BD0010024080
:101D7000C106C90E01208840014908607047000073
:101D800000E100E010B501F09DFB10BDBFF34F8FE7
:101D900004490348C860BFF34F8F00BFFDE7000050
:101DA0000400FA0500ED00E0F8B505460068354C82
:101DB000C00352D5E0690026C00007D4E1692004C1
:101DC0000143E161E1690140012600912E4801686B
:101DD000C90510D40168821511430160FFF7A8FC02
:101DE000074604E0FFF7A4FCC01B642824D826485B
:101DF0000068C005F6D5206A03273F02384020D08E
:101E00006968394081421CD0206A226AB8430121A6
:101E100009040A432262226A8A4322622062C007BE
:101E20000FD0FFF785FC009008E0FFF781FC0099D8
:101E3000411A1648814201D90320F8BD206A800763
:101E4000F3D5206A6968B84308432062002E04D0A5
:101E5000E169012000078143E1612878C00705D0CE
:101E6000206BA968800880000843206328788006DA
:101E700005D5206B10218843E968084320630020C2
:101E8000F8BD000000100240007000408813000000
:101E9000F8B5054644480E460068C007C00FB0427A
:101EA0000AD241480168490849003143016000688D
:101EB000C007C00FB0425CD128783C4C800705D5E4
:101EC0006068F0218843A968084360602878C007EB
:101ED0003FD06868012813D02168022813D08907F1
:101EE000002946DA61688908890001436160FFF7CB
:101EF0001FFC6968074601290DD0022917D024E08C
:101F000021688903ECE78901EAE7FFF711FCC11BAF
:101F10002748814217D860680007800F0128F4D154
:101F200017E0FFF705FCC11B214881420BD8606810
:101F30000007800F0228F4D10BE0FFF7F9FBC11B6B
:101F40001B48814201D90320F8BD60680007800F5B
:101F5000F3D115480168C907C90FB1420BD901680F
:101F600049084900314301600068C007C00FB04212
:101F700001D00120F8BD2878400706D56068072108
:101F800009028843E9680843606000F02DF8616841
:101F9000084A0906090F515CC8400749086000203B
:101FA000FFF7B2FE0020F8BD002002400010024002
:101FB00088130000525A000874010020014800688C
:101FC0007047000074010020044805490068496812
:101FD000044A4905490F515CC8407047740100200C
:101FE00000100240625A000810B512A30FCB88B04F
:101FF0006C460FC413A30FCB0FC416494A680C20BC
:10200000134603401448042B0FD0082B0DD1930224
:102010001B0F6C46E45CC96A04AB0907090F595CE5
:10202000D20304D5FEF75EF8604308B010BD0B483C
:102030006043FAE702030405060708090A0B0C0DC2
:102040000E0F10100102030405060708090A0B0C05
:102050000D0E0F100010024000127A0000093D0022
:10206000FEB504460078D04DC00747D06868000729
:10207000800F012807D068680007800F022809D167
:102080006868C00306D52868800337D560680028D3
:102090007ED033E0012062680004012A11D0810063
:1020A000002A01D0052A10D02A6882432A602868B5
:1020B000884328606068002814D0FFF739FB064683
:1020C0000CE0296801432960F4E72A680A432A6082
:1020D000F7E7FFF72DFB801B64286FD82868800383
:1020E000F7D50BE0FFF724FB064604E0FFF720FBE3
:1020F000801B6428F1D828688003F7D42078012653
:10210000800700283BDA68680007800F07D06868FE
:102110000007800F022809D16868C00306D4286828
:10212000800715D5E068012832D111E0E068002869
:10213000286815D030432860FFF7FAFA074604E014
:10214000FFF7F6FAC01B0228C7D828688007F7D522
:102150002868F82188432169C900084328600EE0F7
:10216000400840002860FFF7E3FA074604E0FFF765
:10217000DFFAC01B0228B0D828688007F7D420787F
:10218000000724D5E0690028686A10D0304300E0D9
:1021900008E16862FFF7CCFA074604E0FFF7C8FAE7
:1021A000C01B022899D8686A8007F7D50FE040085D
:1021B00040006862FFF7BCFA074605E09DE0FFF7C4
:1021C000B7FAC01B022888D8686A8007F7D420783D
:1021D00004274007002860DA00200190E869C00069
:1021E00008D4E969B8060143E961E96901400120C1
:1021F000009101906D480168C90511D401688215EC
:1022000011430160FFF794FA009005E0FFF790FAA0
:102210000099401A642870D864480068C005F5D554
:10222000A06801280AD0002801D0052810D0286A0B
:10223000400840002862286AB84301E0286A304319
:102240002862A068002812D0FFF772FA00900AE016
:10225000286A38432862F1E7FFF76AFA0099411AC1
:102260005348814249D8286A8007F5D50DE0FFF729
:102270005FFA009006E0FFF75BFA0099411A4C48BC
:1022800081423AD8286A8007F5D40198002804D002
:10229000E969012000078143E9612078C00635D54E
:1022A000606901280CD0401D686B23D038436863F7
:1022B000686B400840006863FFF73AFA064622E080
:1022C000686B38436863686B30436863FFF730FAC4
:1022D000064604E0FFF72CFA801B02285BD8686BE7
:1022E0008007F7D5686BF8218843A169C9000843C6
:1022F00068630BE0B8436863F4E74CE0FFF718FA53
:10230000801B022847D8686B8007F7D4206A002812
:1023100046D069680907890F022943D0012636068D
:102320000228286805D0B0432860FFF701FA044668
:1023300033E0B0432860FFF7FBF9074604E0FFF7FE
:10234000F7F9C01B022826D828688001F7D4E86A6C
:10235000E16A000900010843E862616AA06A084373
:1023600069683D221204914308436860286830433D
:102370002860FFF7DDF9044604E0FFF7D9F9001BF8
:10238000022808D828688001F7D509E0FFF7D0F9BE
:10239000001B022801D90320FEBD28688001F5D466
:1023A0000020FEBD0120FEBD001002400070004074
:1023B00088130000042204490428086902D09043CD
:1023C000086170471043FBE700E000E07047000041
:1023D000094910B5401E884201D9012010BD074CA3
:1023E00060610321081F01F06DF80020A061072043
:1023F0002061002010BD0000FFFFFF0000E000E0B2
:1024000010B5FFF7E3FF10BD7047704770B5034686
:1024100020331A7F012A27D001241C7702225A7701
:102420000326CA683602B2438E6800253243A602EC
:10243000B2434E6800683243E602B2430E6832434C
:102440002603B2430E6932436603B2434E6989697B
:102450003243A603B2430A43E603B2430A4342644B
:102460005C771D77002070BD022070BD70B50246FC
:102470002032137F012B1BD00123137702245477C2
:10248000046865687026B5436560046865680E6811
:10249000354365600468A5688026B543A56000687B
:1024A000846849680C43846053770020107770BDBE
:1024B000022070BD70B5040005D025462035687F28
:1024C000002802D006E0012070BD002028772046B9
:1024D00000F00AF802206877211D206801F08AF8D0
:1024E00001206877002070BD08B500680549884262
:1024F00007D105488269C1140A4382618069084096
:10250000009008BD002C014000100240F8B50546BF
:1025100004462035287F012817D001272F77022075
:102520006877226890687726FF23B0431B029843A0
:1025300090600868502837D00EDC202857D006DC81
:1025400000284ED0102840D14EE00220F8BD30289F
:1025500050D0402839D13CE060282DD0702817D0C9
:1025600001221203801A0ED090422ED1CB684A6805
:102570008968206801F08DF8206881680122920343
:102580001143816021E020688168C908C900F8E72B
:10259000CB684A688968206801F07BF82168886800
:1025A000B0433043886010E0CA684968206801F091
:1025B0007FF95021206806E0CA684968206801F068
:1025C000B1F96021206801F06FF86F77002028775B
:1025D000F8BDCA684968206801F06AF9402120689E
:1025E000F1E700212068EEE710212068EBE72021C9
:1025F0002068E8E730212068E5E710B50446007F51
:10260000082807D10C21204600F077FA2168C96A12
:10261000FEF718FB10BDF8B5064604462036307F9D
:102620000D4601283DD00120307702207077002A26
:1026300039D0042A46D0082A57D02B68297B206835
:102640009E468C466B68016A012212039143016227
:10265000C169026A03273F02B9431B020B430F21E2
:1026600009038B4361460907090C194305235B03E2
:102670009A4373460A273B401B031343C16103621D
:102680002068C169032292029143C1612068C16937
:10269000AA6812021143C1610120707700203077CF
:1026A000F8BD0220F8BDEB6806CD083D206801F0BA
:1026B00011F9206882690C218A438261206881694E
:1026C000AA680FE0EB6806CD083D206801F03DF9EF
:1026D00020688269032189028A43826120688169B6
:1026E000AA68120211438161D6E788CD2879216852
:1026F0008446086AFF22013290430862C8690A6A68
:10270000800880003843F027B84367463F073F0EF4
:1027100007430520400282430A2003401802104369
:10272000CF6108622068C1690C229143C1612068B1
:10273000C1692A68AEE770B5040005D0254620358A
:10274000687F002802D006E0012070BD00202877B5
:10275000204600F00BF802206877211D206800F069
:1027600049FF01206877002070BD000000B50068B7
:10277000104987B088421AD10F49CA690220024322
:10278000CA61C96900900140019000200290039045
:1027900001200591049069460848FEF715FF0022C4
:1027A00011461020FFF7EEFA1020FFF7E1FA07B00C
:1027B00000BD00000004004000100240000400487A
:1027C00010B502680446002906D0042907D008295C
:1027D00014D00C2907D114E0D068022301E0D0689E
:1027E00004231843D0600122206800F047FF2068CE
:1027F0000168012211430160002010BDD068082348
:10280000EFE7D0681023ECE770B504460068016973
:102810000025C9438907002915DBC168C943890719
:1028200011D4E91E016101202077206880698007AA
:10283000204602D0FFF7E1FE04E000F0AFF82046AA
:1028400000F030F9257720680169C943490717D49A
:10285000C168C943490713D40421C9430161022057
:102860002077206880698005800F204602D0FFF71E
:10287000C4FE04E000F092F8204600F013F925773A
:1028800020680169C943090716D4C168C94309070B
:1028900012D40821C9430161042020772068C0694F
:1028A0008007204602D0FFF7A8FE04E000F076F88B
:1028B000204600F0F7F8257720680169C943C9066A
:1028C00017D4C168C943C90613D41021C943016193
:1028D000082020772068C0698005800F204602D03C
:1028E000FFF78BFE04E000F059F8204600F0DAF81C
:1028F000257720680169C943C90708D1C168C94360
:10290000C90704D1891E0161204600F0F5F820684E
:102910000169C943090609D4C168C943090605D438
:102920008021C94301612046FFF76EFD20680169DF
:10293000C943490609D4C168C943490605D44021A1
:10294000C9430161204600F0FBF820680169C943D2
:10295000890609D4C168C943890605D42021C94321
:1029600001612046FFF751FD70BD000000B5006811
:10297000084985B088420BD1012000900221002037
:10298000019102900491039069460348FEF71CFEF2
:1029900005B000BD002C0140000400487047F8B5A8
:1029A000064604462036307F0D4601280DD0012012
:1029B0003077022070770427002A08D0042A16D026
:1029C000082A2AD00C2A4DD137E00220F8BD206811
:1029D00000F072FE2068816908221143816120683D
:1029E0008169B9438161206881692A6912E02068A0
:1029F00000F0A6FE206882690121C9020A438261B3
:102A00002068816901229202914381612068816975
:102A10002A6912021143816124E0206800F0D0FE8F
:102A20002068C26908210A43C2612068C169B943AC
:102A3000C1612068C1692A6912E0206800F002FFC4
:102A40002068C1690122D2021143C1612068C269B4
:102A5000012189028A43C2612068C1692A69120280
:102A60001143C1610120707700203077F8BD70B547
:102A7000040005D025462035687F002802D006E0F6
:102A8000012070BD00202877204600F00AF80220BF
:102A90006877211D206800F0ADFD012068770020D7
:102AA00070BD70477047000010B5044600680422EE
:102AB00000F0E4FD0C482168814208D00B488142B7
:102AC00005D00B48814202D00A48814204D1486CAB
:102AD0000122D20310434864206801680122114397
:102AE0000160002010BD0000002C014000400140AA
:102AF0000044014000480140704710B503462033B0
:102B00001C7F0022012C0AD001241C77002908D048
:102B1000042909D008290AD00C290DD10AE0022085
:102B200010BD0068426B07E00068826B04E000683B
:102B3000C26B01E00068026C00201877104610BDDF
:102B400070477047F8B503680446D96918680D07DF
:102B50002D0F07D18A0605D5820603D5204600F041
:102B6000A2FFF8BD9A68002D64D0D507ED0FFF26AF
:102B7000213606402E435DD0CE0706D0C60504D5CB
:102B800001261E62E36E3343E3668F0702230426A9
:102B9000002F06DAD70704D027683B62E76E374379
:102BA000E7664F0706D5D20704D022681662E26EA8
:102BB0001A43E2660A0709D5202202402A4305D0BB
:102BC000236808221A62E36E1343E366E26E002A6A
:102BD000C7D0890604D5800602D5204600F063FFE1
:102BE000E06E000703D42068806840061CD52046AC
:102BF00000F03DFF20688168490611D581684022B8
:102C000091438160606E00280AD012494163606E72
:102C1000FEF7A8FC0028A4D0606E416B8847F8BD81
:102C20002046FFF78EFFF8BD2046FFF78AFF002001
:102C3000E066F8BD0A0605D5020603D5204601F078
:102C400007F8F8BD4906FCD54006FAD5204600F045
:102C50001DFFF8BD5B3A000870B5040005D025469D
:102C60006035687A002802D006E0012070BD00209F
:102C70002872204600F026F8242068722068016837
:102C8000490849000160204600F04AFF0128EDD0C4
:102C9000606A002802D0204600F071FE206841687A
:102CA0000122D20291434160206881680822914349
:102CB000816020680168012211430160204600F014
:102CC000C3FE70BD00B50068114987B088421DD1B0
:102CD00010488269012189030A43826180690840A2
:102CE0000590C02000900220002101900320029155
:102CF0000491039069460848FEF766FC00221146DD
:102D00001B20FFF73FF81B20FFF732F807B000BD8C
:102D1000003801400010024000040048FFB507469B
:102D200004466037B87A83B00E46202864D1002E5E
:102D30000CD00598002809D00120A1680003814229
:102D400007D12069002804D1F00702D0012007B084
:102D5000F0BD387A01284FD0012038720020E0669B
:102D60002220B872FEF7E4FC029025464035059813
:102D70002883059868830122A1681203FF209142ED
:102D800004D12169002907D11C4805E0002904D19C
:102D90002169002900D07F20A883A88B01901CE026
:102DA000688B401E688306980090002220212046F0
:102DB000029B00F080FF002801D00320C7E701201C
:102DC000A1680003814202D1206900280DD020684B
:102DD000818C019801403170761C688B0028DFD10E
:102DE0002020B87200203872B1E72068808C0199E9
:102DF00008403080B61CF0E70220A8E7FF01000081
:102E00007047FFB5064604466036707A83B00D46BB
:102E1000202858D1002D0CD00598002809D0012079
:102E2000A1680003814207D12069002804D1E80786
:102E300002D0012007B0F0BD307A012843D0012034
:102E400030720020E06621207072FEF771FC019064
:102E500027464037059838820598788218E0788AA6
:102E6000401E788206980090002280212046019B17
:102E700000F021FF002818D10120A1680003814241
:102E800002D12069002812D02168287808856D1C9D
:102E9000788A0028E3D1069800900022402120463D
:102EA000019B00F008FF002808D00320C2E7288813
:102EB0002168C005C00D0885AD1CE9E720207072AF
:102EC00000203072B6E70220B4E77047FEE70168E1
:102ED0008A69D243920701D400228A62006881691C
:102EE000C943C90703D08169012211438161704739
:102EF000F7B5044600680E468069C043C0062CD46E
:102F000020272546403520688069C04380060FD5BC
:102F1000701CF8D0002E05D0FEF70AFC0299401A6A
:102F2000B042F0D96F700020A87028700320FEBD59
:102F300021681020C8612068C7612046FFF7C7FFDD
:102F400020684168064A11404160042060646F7047
:102F50000020A87028700120FEBD0020FEBD0000EA
:102F600000E800FEF8B504460120164640031D4661
:102F7000DAB20090079F0023204600F0ABF83A46F3
:102F80002046069900F003F9002803D0606C04285D
:102F90001BD018E02846F5B2012809D02168300A74
:102FA00088623A462046069900F0F1F80028EDD1F3
:102FB000206885620097002240212046069B00F091
:102FC0009BF8002800D00320F8BD0120F8BDF8B51B
:102FD000044601204003079D0090581917461E46DD
:102FE000C2B20023204600F075F82046099A0899DD
:102FF00000F0CDF8002803D0606C042832D02FE018
:103000003046FEB2012809D02168380A886220467D
:10301000099A089900F0BBF80028EDD12068866273
:10302000002D1FD0069800281CD000260CE020465A
:10303000099A089900F0ABF80028DDD106982168BC
:10304000805D8862761CF6B2AE42F0D3099800909B
:10305000002240212046089B00F04EF8002800D0B6
:103060000320F8BD0120F8BDF8B50446012016463E
:1030700040031D46DAB2C3020090079F204600F0CD
:1030800029F83A462046069900F081F8002803D036
:10309000606C04281BD018E02846F5B2012809D03E
:1030A0002168300A88623A462046069900F06FF897
:1030B0000028EDD1206885620097002280212046FB
:1030C000069B00F019F8002800D00320F8BD01206D
:1030D000F8BD000070B50568049C68688905890D15
:1030E0001204044E114319433040214301436960E7
:1030F00070BD0000009800FCF8B51C4617460E464F
:10310000054611E0601C0FD0002C05D0FEF710FB27
:103110000699401AA04207D9202040356870002047
:10312000A87028700320F8BD28688169304688435C
:1031300004D00020B842E5D00020F8BD0120F9E716
:1031400070B516460D4604461AE03246294620461A
:10315000FFF7CEFE002801D0012070BD002D04D065
:10316000FEF7E6FA801BA8420AD9616C20200143D1
:103170006164403460700020A0702070032070BD36
:1031800020688069C0438006DFD4002070BD70B520
:1031900016460D4604461CE0324629462046FFF7F7
:1031A000A7FE002801D0012070BD681C11D0002DA1
:1031B00004D0FEF7BDFA801BA8420AD9616C20201A
:1031C00001436164403460700020A07020700320CF
:1031D00070BD20688069C0438007DDD4002070BDC9
:1031E0003EB5154813490160002141608160C1600E
:1031F000012481610461C16104220462426141626F
:10320000FF22C162C232446382620163FEF730F87A
:10321000002800D0FEE70120000301900004029086
:10322000009469460448FDF797FF002800D0FEE7A8
:103230003EBD0000002401407801002010B50D487B
:103240000B490160002101714171602141618021C0
:10325000816101210162FEF745F9002800D0FEE7F7
:103260000448FEF70DF9002800D0FEE710BD00006D
:1032700000300240C4010020F0B5264887B0426902
:10328000012149040A43426142690A4005924269A8
:1032900049000A43426142690A40059242690901B4
:1032A0000A43426140690F24084009272402FF06AF
:1032B0000590002221463846FEF733FA164E0022CA
:1032C00031461648FEF72DFA009400240125019599
:1032D0000294694638460394FEF776F902946946EB
:1032E0000E48009601950394FEF76EF9E8030090EE
:1032F0000194694602940948FEF766F9302000906F
:1033000007480190694602940448FEF75DF907B04A
:10331000F0BD00000010024004440000000400481A
:103320000000111010B512481049016011494160A8
:10333000002181600161416181610122C161C2603E
:103340000162FEF745FA002800D0FEE70021084898
:10335000FEF7F4F9002800D0FEE700210448FEF74C
:1033600012FA002800D0FEE710BD0000005800400F
:10337000E80100200E09002010B5294894B0274923
:10338000016000240721846041600461446163217D
:103390008461C160FFF78EF8002800D0FEE70120AD
:1033A00000030E900EA91E48FFF7B0F8002800D0C9
:1033B000FEE71B48FFF75BFB002800D0FEE71294F6
:1033C00012A917481394FFF751F8002800D0FEE720
:1033D00060200594019400900294039404940422C4
:1033E000694606940E48FFF7DAFA002800D0FEE797
:1033F00001200794400308940C9009940A940B94BC
:1034000007A90D940648FFF701F8002800D0FEE751
:103410000348FFF7ABFA14B010BD0000002C0140C8
:103420003402002010B5164886B01449016000240B
:103430001449846041600461611E8461C160FFF7CA
:103440007AF9002800D0FEE7049404A90C480594FA
:10345000FFF70CF8002800D0FEE7022000900120C2
:10346000019002940C22694603940548FFF7D3F8B3
:10347000002800D0FEE706B010BD000000040040A8
:10348000740200201F03000010B50C480A490160B7
:10349000E1214902416000218160C16001618161D7
:1034A000C1610C22016242614162FFF7D5FB002835
:1034B00000D0FEE710BD000000380140B40200203B
:1034C000704700008307FF22DB0E9A408907090E30
:1034D000994000280BDA0007000F083883080848D5
:1034E0009B001818C36993430B43C361704783085B
:1034F00004489B001B1818689043084318607047E5
:1035000000ED00E000E400E07047704710B5FEF702
:10351000E3FBFEF775FF10BD30B595B00125122015
:1035200005950090102003950490002406900894BF
:103530006846FEF795FD002800D0FEE707200C90B6
:103540000D940E9400210F940CA8FEF7A1FC002806
:1035500000D0FEE710A810951294FEF725FC002875
:1035600000D0FEE7FEF72AFD7D21C900FCF7BAFD79
:10357000FEF72EFF0420FEF71DFF00221146501E0D
:10358000FEF700FC15B030BD13480168012211435D
:1035900001604168114A114041600168104A1140C0
:1035A00001600168012292049143016041683F2259
:1035B000120491434160C16A09090901C162016BAA
:1035C000FF22143291430163416B49084900416372
:1035D0000021816070470000001002400CB8FF0815
:1035E000FFFFF6FE10B50248FFF70EF910BD000010
:1035F00074020020F0B502681A4B1B4C984201D0AF
:10360000A04203D17025AA434D682A43174D184E96
:10361000184F98420AD0A04208D0174CA04205D0BB
:10362000A84203D0B04201D0B84205D114460322CB
:1036300012029443CA6822438024A2434C69224365
:1036400002608A68C2620A688262984205D0A84213
:1036500003D0B04201D0B84201D109690163012110
:103660004161F0BD002C01400004004000400140D9
:1036700000440140004801400020004010B50123F3
:10368000046A8B409C430462036A8A4013430362CA
:1036900010BD30B58468FF252D021B021343AC43D7
:1036A0000B432343836030BD826870239A430A43EF
:1036B00007210A4382607047F0B5026A520852003F
:1036C0000262056A436882697024A24392080C680A
:1036D00092001443022295438A68164E2A43144DE1
:1036E000A84207D0B04205D0134FB84202D0134FC2
:1036F000B84206D10827BA43CF681743042297433C
:103700003A46A84207D0B04205D00B4DA84202D09D
:103710000A4DA84206D103252D02AB434D691D4336
:103720008B692B4343608461496841630262F0BD49
:10373000002C01400040014000440140004801408D
:1037400070B5026A10239A430262056A426883696F
:1037500073242402A3430C6824021C4320239D43AA
:103760008B681B012B43124DA84208D11D46CB6824
:103770008026B5431B012B434025AB4308E00D4D8C
:10378000A84205D00C4DA84202D00C4DA84208D149
:103790000325AD02AA434D69AD0015438A69920025
:1037A0002A434260846149688163036270BD0000FE
:1037B000002C01400040014000440140004801400D
:1037C00070B5026AFF2301339A430262056A4368B7
:1037D000C2697024A24392080C689200144301222B
:1037E000520295438A6812022A43124DA84208D118
:1037F0001546CA68C614B54312022A430515AA43E2
:1038000008E00D4DA84205D00C4DA84202D00C4D49
:10381000A84208D103252D03AB434D692D011D435B
:103820008B691B012B434360C4614968C163026219
:1038300070BD0000002C01400040014000440140E8
:103840000048014030B5026A01231B039A4302621B
:10385000046A4268C36973252D02AB430D682D02CB
:103860001D4301235B039C438B681B0323430C4CC8
:10387000A04208D00B4CA04205D00B4CA04202D075
:103880000A4CA04205D10124A403A2434C69A4011F
:1038900022434260C56149680164036230BD000093
:1038A000002C01400040014000440140004801401C
:1038B00030B5036A046A6408640004628469F02510
:1038C000AC43120122430A24A3430B4382610362E7
:1038D00030BD000070B5046A640864000462846945
:1038E000056A0D4EB04205D00C4EB04202D00C4ECF
:1038F000B04202D1A408A40000E001221443F02247
:1039000094431A07120E0A2322439D431940294368
:103910008261016270BD0000002C01400004004083
:103920000040014030B5036A1024A3430362846958
:10393000036A0F252D031203AC432243A024A343A3
:10394000090119438261016230BD70B5046A102516
:10395000AC4304628569046A03263602B543120249
:103960002A430F252D031B071B0CAA431343A02238
:1039700009019443114021438361016270BD10B578
:10398000818CC90707D001684A6801235B049A4308
:10399000836A1A434A60818C890707D501684A689F
:1039A00001231B049A43C36A1A434A60818C490766
:1039B00007D501684A6801239B049A43036B1A43A5
:1039C0004A60818C090707D501684A680123DB0337
:1039D0009A43436B1A434A60818CC90607D5026833
:1039E000916801231B039943836B19439160818C78
:1039F000890607D501688A6801235B039A43C36B74
:103A00001A438A60818C490612D503685A680121DD
:103A10000905046C8A4322435A60026C8A4207D12A
:103A20000268516803235B059943436C1943516055
:103A3000818C090607D501684A680123DB04806C84
:103A40009A4302434A6010BD0021C16620226030C3
:103A50004272827201720846704710B5406A0022B5
:103A6000014640314A834A82FFF76BF810BD016876
:103A70000A68FF2321339A430A6001688A68520862
:103A800052008A60202160308172704710B5016851
:103A90000A6840239A430A60202269210A54FFF7EA
:103AA00014FA002010BD70B5024640320346603360
:103AB000948B9D7A0168222D05D0886908221043D5
:103AC0008861022070BD898C012685683603B54265
:103AD00002D10569002D0BD02140446D651C456560
:103AE0002170518B491E0904090C518307D015E040
:103AF000456D21402980416D891C4165F1E70168D0
:103B00000A68FF242134A2430A6001688A685208C7
:103B100052008A6020219972FFF772F9002070BD6F
:103B2000F8B504462369A268E5691A436369102061
:103B30002B43002125681A432B680E463E4F3B401D
:103B400013432B6023685A6803252D03AA43E568B5
:103B50002A435A60236AA26925681A43AB680B2777
:103B60003F02BB431343AB60344A2568954210D1F2
:103B7000334A126B9207920F0ED0012A05D0022A07
:103B800005D0032A09D1022007E0042005E008201F
:103B900003E02C4A954200D100200122E369D203C0
:103BA000934224D100280CD002280DD0042813D031
:103BB000082817D001260A0912010807400F1043F0
:103BC0002FE0FEF701FA09E061681F4A48088018F3
:103BD000FCF788FA81B2EEE7FEF706FA616840006A
:103BE0004A08F4E76168012248081204EFE7002858
:103BF00008D0022809D004280BD0082814D00126A8
:103C00003046F8BDFEF7E0F905E061680F4A480864
:103C10000CE0FEF7E9F961684A088018FCF762FADF
:103C200080B22168C860EBE7616848088018FCF73B
:103C300059FA80B2E860E3E7F369FFFF003801401A
:103C400000100240004400400024F40000127A00FA
:103C50006921095C212901D00220704702464032C7
:103C6000518A002912D0012381681B03994202D195
:103C70000169002915D0C16C4B1CC3640068097828
:103C80000185508A401E50820020704701680A68F2
:103C900080239A430A600068016840221143016052
:103CA000F2E7C16C03680988C905C90D1985C16CA3
:103CB000891CC164E5E7FFB581B017460E4604468E
:103CC0000A9D1DE0681C1BD0002D05D0FDF730FDBE
:103CD0000499401AA84213D920680168FF22A13232
:103CE0009143016020688168490849008160202073
:103CF00060346072A07200202072032005B0F0BD15
:103D00002068C1693046884304D00020B842D9D029
:103D10000020F3E70120F9E710B50248FEF712FF93
:103D200010BD0000B40200207CB5154602460020FC
:103D30001C4600290BD0491E00920191044B6A4693
:103D40002146284600F0F4F8009A002111707CBD4D
:103D5000694600082021020C01D010211046020AF9
:103D600001D010460839020901D01046091F820807
:103D700001D01046891E420801D0881E7047081ADB
:103D8000704730B47446641E2578641CAB4200D280
:103D90001D46635D5B00E31830BC184702E008C8AD
:103DA000121F08C1002AFAD170477047002001E0B5
:103DB00001C1121F002AFBD170470000F0B51FB4EB
:103DC00086B00998089A030D0021024314D0514887
:103DD000514A1818504305141198012810981AD008
:103DE000281A401C00264D4F4D4900960191049021
:103DF000002812DA444211E01198012449A3012855
:103E000001D11098C1430698119A84600360C26082
:103E100041600BB0F0BD4042E4E7044621050020BC
:103E20003F4A001C51410391029012E0E00707D085
:103E300032463B4601990098FCF744FB0191009003
:103E400032463B4610461946FCF73CFB06460F46F9
:103E50006410002CEAD10498039B0028029A099967
:103E6000089806DAFCF72EFB019B009AFCF72AFB68
:103E700005E0FCF78FFB019B009AFCF78BFB0446E7
:103E80000E460022284BFCF71DFC03D80020C0433F
:103E9000014607E00022254B20463146FCF760FA38
:103EA000FCF7F0FB102409E0002C0ADB0A220023B7
:103EB000FCF7E5F9079B30321A55641E02460A43A7
:103EC000F2D11122641C079B121B1C19119B012BA0
:103ED00003D0012308430ED10AE0084304D0112087
:103EE00010900020119077E71098151A6D1E0BE0C6
:103EF0001098824202DD00236D1C03E0824201DA49
:103F000000236D1E002BEED0069811998260C160CF
:103F100030C07EE701FCFFFF104D000000001440A0
:103F20000000F03F300000000000F0430000E03FE0
:103F3000FFB597B00646002518E2252877D1002462
:103F40002746FD49049400E00443761C32780120A2
:103F5000203A90400842F7D130782A280ED0022229
:103F6000307801463039092916D804990A23594373
:103F7000303940181443761C0490F1E7189802C8B1
:103F800004911890002904DA0120400304434842B8
:103F9000049002200443761C30782E2814D104208B
:103FA00004437078761C2A2809D11898761C80C89A
:103FB000189009E00A214F43303FC719761C30782A
:103FC000014630390929F5D930786C2810D006DC43
:103FD0004C281AD068280ED06A2817D104E074281B
:103FE00013D07A2812D110E00120400504430CE0E0
:103FF0000121090501E0032109050C437178814283
:1040000003D1012000052418761C761C307811900D
:1040100066280BD013DC58287DD009DC00287BD023
:104020004528F6D04628F4D047281AD1A5E118E053
:10403000632835D0642870D0652812D19DE170289E
:104040006CD008DC6728F1D069287BD06E280DD0B1
:104050006F2806D1BAE073282ED0752871D0782841
:1040600059D01A9A199990476D1C7EE16002400F51
:10407000022809D003280DD00428189801680DD013
:104080000D60001D189070E11898EA1701680D6026
:104090004A60F6E7189801680D80F2E70D70F0E7C6
:1040A00018986A4601781172001D1890002050720D
:1040B00002A80090012005E0189802C8189000207E
:1040C0000091C04361070DD5002101E00199491C11
:1040D0000191B94212DA8142F8DB009A515C002961
:1040E000F4D10BE0002101E00199491C01918142CA
:1040F000FADB019A0099895C0029F5D101990498AD
:104100001A9B471A21463846199A00F097FA0199E6
:10411000401945180BE04FE02CE113E04EE0009809
:1041200000990078491C00911A9A199990470198B2
:10413000401E0190401CF2D1214638461A9B199A24
:1041400010E137E00A200021009001916002410F48
:10415000022907D0189A01CA1892C2179446032957
:1041600008D00AE01898C01DC108C90005C91891F7
:10417000944607E000B2C2179446042902D140B227
:10418000C1178C4600226146944506DA0A46002192
:10419000404291418C462D2102E0210504D52B217E
:1041A0006A461173012103E0E10701D02021F7E7FE
:1041B000029155E00A200AE0102008E0102000904B
:1041C0000021042004430191082703E00820002176
:1041D000019100906002410F022907D0189A01CA8C
:1041E000189200229446032908D008E01898C01DB0
:1041F000C108C90005C91891944603E080B204299A
:1042000000D1C0B200210291210729D5119970294E
:1042100006D0009A1021019B4A401A4305D00EE0B7
:1042200040216A461173012108E06146014306D02E
:1042300030216A4611731199517302210291009A3B
:104240000821019B4A401A430AD16146014301D12A
:10425000610705D530216A46117301217F1E029145
:104260001199582904D035A10E910DA90D910DE099
:1042700037A1F9E76146019B009AFCF700F80E9B15
:104280008C469B5C0D9A521E0D9213706146014341
:10429000F0D10D9805A9081A20300190600703D5C8
:1042A00001200004844300E001270198874201DDDA
:1042B000381A00E00020019900904118029809186E
:1042C0000498401A0490E00306D421461A9B199AD8
:1042D000049800F0B3F94519002706E003A81A9ADC
:1042E000C05D199990476D1C7F1C02988742F5DBD1
:1042F000E0030CD521461A9B199A049800F09EF908
:10430000451904E01A9A3020199990476D1C0099BC
:10431000481E00900029F5DC08E00D980D99007802
:10432000491C0D911A9A199990476D1C0199481EC4
:1043300001900029F1DC63E10928010030313233BA
:1043400034353637383961626364656600000000D1
:1043500030313233343536373839414243444546BB
:104360000000000000F05AF94519761C307800284A
:1043700000D0E2E528461BB0F0BD600700D4062758
:104380001898C01DC108C90048680A680831C30FE1
:10439000DB071891190001D09CA108E0210501D587
:1043A0009BA104E0E10701D09AA100E09AA143009B
:1043B00011985B08109165280CD006DC452809D0BF
:1043C00046281DD0472841D141E0662818D06728EB
:1043D0003CD13CE00021112F01DB112000E0781CD2
:1043E0000191009008A911A8FFF7E8FC1399059125
:1043F0000021119A15927F1C12980197009150E0AC
:104400000120C00703900120019008A9009711A87E
:10441000FFF7D4FC139A149905920022119B009285
:1044200012981593059A0192002901D0104602E0D6
:10443000791C40180190381A01D5019804E04042D7
:10444000401E0090781C0190C01B029043E0012F99
:1044500000DA01270021112F01DD112000E038468C
:104460000191009008A911A8FFF7A8FC13990591E4
:10447000119A0021129815920091019721070CD4EE
:104480000599B94201DB019900E00191012904DDA0
:10449000159A491E515C302906D0B84201DA011D37
:1044A00005DA0121029115E00199491EEDE7002886
:1044B00005DC0099411800910199091A03E0019A5D
:1044C000411C914200DD01910099401A401C02906C
:1044D0000120C0070390200706D402990198814269
:1044E00002DB0020C043029000206946C87707AF76
:1044F000012103980337C907884224D00220119074
:104500002B201290039800280CDA404203902D20B3
:10451000129007E00A210398FBF7E4FD30317F1E7B
:10452000039039701199481E11900029F2DC03980C
:104530000028EFD1791E12980870307820210840A9
:104540004530BF1E387006A8C01BC01D03901098D0
:104550000078002800D00120019941180298C01766
:104560000918039809180498401A401E0490E003A3
:1045700006D421461A9B199A049800F05FF8451951
:1045800010980078002803D01A9A199990476D1C4A
:10459000E00324D521461A9B199A049800F04EF89E
:1045A00045191CE00098002807DB0099059888420F
:1045B00003DD1598405C199901E0199930201A9A89
:1045C000904700986D1C401C00900298401E02907D
:1045D000002804D11A9A2E20199990476D1C019930
:1045E000481E01900029DDDC05E038781A9A7F1C0E
:1045F000199990476D1C0399481E03900029F4DC1B
:1046000021461A9B199A0498ACE600002D00000080
:104610002B0000002000000000000000F8B5044658
:1046200000251E461746880404D405E0394620209C
:10463000B0476D1C641EF9D52846F8BDFFB5044689
:10464000002581B01E46C80301D5302700E0202791
:10465000880404D505E038460399B0476D1C641EF4
:10466000F9D5284605B0F0BD4A68002A06D00A6888
:10467000531C0B6010704868401E486070478207EA
:1046800010B5920F03210F2000F068FF10BD00004D
:10469000012110B58902084B002806D0012806D058
:1046A0001846FDF73AF8002010BD002200E0012274
:1046B0001846FDF736F8F6E70004004800B585B067
:1046C0000022684602733321417301218173C27352
:1046D00001748A1E052103A8029201910090012312
:1046E000882236210248FDF729FA002005B000BDD6
:1046F000E8010020F0B585B000240746E443062514
:1047000003AE0123552236211C48009601950294E0
:10471000FDF7B8F868468189C289008A002F26D043
:104720000A310A3289B293B20A3082B2FF20F530E0
:10473000814200D90146834200D90346824200D912
:10474000024668460173090A41738373190AC173EB
:104750000274110A4174012354223621074800963D
:1047600001950294FDF7EAF9002005B0F0BD0A3981
:104770000A3A89B293B20A38D7E70000E80100206C
:10478000F0B500268BB0F643012403AF02280DD309
:104790000123062236215148009702960194FDF725
:1047A00071F86846017B2046884300E0C0B205905E
:1047B000002802D001280BD105E0052000022D259C
:1047C0002D01099003E04648FF25E1350990079047
:1047D000684604730123162236214048009702964A
:1047E0000194FDF7ABF96846047301231A223621C0
:1047F0003A48009702960194FDF7A0F943216846D4
:104800000173012307223621344800970296019450
:10481000FDF794F968460999017309980123010A83
:10482000684641738573290AC173042001902E22C2
:104830003621009702962948FDF780F90020039061
:1048400068460799017407980123010A6846417474
:104850008574290AC1740825102236211F48009743
:1048600002960195FDF76AF90020039056216846EB
:10487000017403214174E0218174C4740123122264
:1048800036211648009702960195FDF757F96846BC
:1048900005990173012305223621104800970296DD
:1048A0000194FDF74BF900216846017301231A2298
:1048B00036210A48009702960194FDF73FF900213E
:1048C0006846017301231622362104480097029698
:1048D0000194FDF733F900200BB0F0BDE801002092
:1048E00056030000F1B586B00024E443052703AD6C
:1048F0000123892236212648019700950294FCF76E
:10490000C1FF6846007B0026C00700281DD1012199
:1049100068460173332242738173C67301740B4678
:10492000882236211A48019700950294FDF706F96E
:10493000684606734673022001900123BB2236218C
:10494000009502941248FDF7F9F802270123BC22D2
:1049500036210F48019700950294FCF793FF6846B3
:104960000673417B0698002801D0012000E0204614
:104970000818694648730123BB2236210448019771
:1049800000950294FDF7DAF8002007B0F0BD0000B2
:10499000E80100207FB500260125F64303AC2B4635
:1049A000152236210D48029601950094FCF76AFF06
:1049B0006946087B0622811C1140F9221040081824
:1049C0006946087301231422362104480296019592
:1049D0000094FDF7B3F8002004B070BDE80100209A
:1049E000F0B589B0002069460877461E042505AC5D
:1049F0006F4670C70123D12236213D48FCF742FFA4
:104A0000002809D16846C07D00906846837D427DBC
:104A1000017D3848FCF7E8FA01273B46D4223621CD
:104A20003348019702960094FCF72CFF002804D12C
:104A30006846017D30A0FCF7D7FA019702AF70C736
:104A400007A800900123D52236212948FCF7C6FF8C
:104A5000002809D16846C07D00906846837D427D6C
:104A6000017D2C48FCF7C0FA6F4670C70123D222A3
:104A700036211F48FCF706FF002809D16846C07D93
:104A800000906846837D427D017D23A0FCF7ACFA4F
:104A90006F4670C70123D92236211548FCF7F2FE74
:104AA000002809D16846C07D00906846837D427D1C
:104AB000017D2948FCF798FA062001900123552230
:104AC0003621029600940A48FCF7DCFE00280CD13F
:104AD0006846427E017EC07D6B4607C36846837D83
:104AE000427D017D1DA0FCF77FFA002009B0F0BDDA
:104AF000E8010020B45A0008436F6E74726F6C6C4A
:104B000065722044657669636520494420307825C4
:104B1000303258006C5A00087377207061746368F3
:104B2000204C5342203078253032582C204D5342AF
:104B3000203078253032583B207377204D696E6FD6
:104B400072203078253032582C204D616A6F7220E7
:104B50003078253032580000FC5A00085245442075
:104B60003078253032582C203078253032583B2090
:104B7000477265656E203078253032582C203078A9
:104B8000253032583B20426C756520307825303214
:104B9000582C20307825303258000000F0B585B010
:104BA00000270124FF4303AD234606223621334864
:104BB000029700950194FCF765FE6846007B80072C
:104BC000800F012857D10620019001230C223621A5
:104BD000029700952948FCF755FE69460E7B09218E
:104BE0003007000F401CFBF77DFA30090001081860
:104BF000694602070873120F002010267021130067
:104C0000FFF7BFF809060A0A1017101D252F3000FC
:104C100068464673022425E06A4651739073FF206C
:104C2000D07304E0684641738473092105E00424CD
:104C300018E0684641731F218173C173F7E76A4624
:104C400051739473D0731474507406240AE06A4646
:104C5000517396730C21D07311745074907407249F
:104C600000E0012401230B2236210448029700951D
:104C70000194FCF763FF002005B0F0BDE8010020BF
:104C8000F0B52027002489B025467D22D2000821D6
:104C900006A86E4607C601232A46A0211348FCF742
:104CA000F1FD060006D0E10011A0FCF79DF93046A9
:104CB00009B0F0BD6846C37F827F417F007F0593C6
:104CC00002AB07C36846C17E807E019100906846B2
:104CD000437E027EE1000E48FCF786F9641C08352D
:104CE000E4B2EDB2BC42D0D3E1E70000E80100201D
:104CF000454449442052656164206572726F722098
:104D0000696E20726F7720307825303258000000AD
:104D1000445B0008F0B587B02020049000207D2679
:104D2000F6000446082703901D4801230519224672
:104D3000A0211C48019702960095FCF7FFFE002871
:104D400002D0214618A00DE005A8009001232246BC
:104D5000A021019702961348FCF794FD002806D085
:104D600021461BA0FCF740F9012007B0F0BD294601
:104D7000082205A8FBF708FA002802D021461DA04A
:104D8000F0E703980834401CC0B20499E4B20390E1
:104D90008842C9D321A0FCF727F90020E5E70000ED
:104DA00064000020E801002045444944205772690E
:104DB0007465207772697465206572726F722069FC
:104DC0006E20726F77203078253032580000000056
:104DD00045444944205772697465207265616420B6
:104DE0006572726F7220696E20726F77203078253D
:104DF0003032580045444944205772697465206335
:104E00006865636B206572726F7220696E20726FC5
:104E1000772030782530325800000000454449445E
:104E20002057726974652073756363657373667563
:104E30006C21000010B5044C01212170A060FCF72A
:104E400077FC606010BD0000640100200349002071
:104E50000870034964200968886370476401002072
:104E600034020020642800D964200249096888635C
:104E700070470000340200201FB503AAFF210A205A
:104E800000F054FA6846017B98A0FCF7ADF803AA3D
:104E9000FF210B2000F04AFA6846017B99A0FCF73D
:104EA000A3F803AAFF21512000F040FA6846017BD5
:104EB0009AA0FCF799F803AAFF21712000F036FAB6
:104EC0006846017B9BA0FCF78FF8012203210F208D
:104ED00000F044FB03AAFF21B02000F027FA0022D3
:104EE00003210F2000F03AFB6846017B97A0FCF7F6
:104EF0007BF803AAFF215B2000F018FA6846017BCB
:104F000096A0FCF771F803AAFF21102000F00EFA1A
:104F10006846017B97A0FCF767F803AAFF21912060
:104F200000F004FA6846017B97A0FCF75DF80120C9
:104F3000FFF7A5FB7D220121D20003A86C4607C420
:104F40000B46D42290219748FCF79CFC0020FFF7E9
:104F500096FB6846017B94A0FCF746F803AAFF2164
:104F6000992000F0E3F96846017B92A0FCF73CF839
:104F700003AAFF219A2000F0D9F96846017B90A08E
:104F8000FCF732F891A0FCF72FF803AAFF21C0200C
:104F900000F0CCF96846017B8FA0FCF725F803AA46
:104FA000FF21C12000F0C2F96846017B8FA0FCF709
:104FB0001BF803AAFF21C22000F0B8F96846017B64
:104FC0008FA0FCF711F803AAFF21C32000F0AEF96F
:104FD0006846017B8FA0FCF707F803AAFF21C420D5
:104FE00000F0A4F96846017B8FA0FBF7FDFF03AA40
:104FF000FF21C52000F09AF96846017B8FA0FBF7DE
:10500000F3FF03AAFF21C62000F090F96846017B58
:105010008FA0FBF7E9FF03AAFF21C72000F086F964
:105020006846017B8FA0FBF7DFFF03AAFF21C820A2
:1050300000F07CF96846017B8FA0FBF7D5FF03AA3F
:10504000FF21C92000F072F96846017B8FA0FBF7B1
:10505000CBFF03AAFF21D12000F068F96846017B4D
:105060008FA0FBF7C1FF03AAFF21AA2000F05EF981
:105070006846017B8FA0FBF7B7FF03AAFF21AB2097
:1050800000F054F96846017B8DA0FBF7ADFF03AA41
:10509000FF21AC2000F04AF96846017B8BA0FBF7AA
:1050A000A3FF03AAFF21AD2000F040F96846017B71
:1050B00089A0FBF799FF03AAFF21AE2000F036F983
:1050C0006846017B87A0FBF78FFF03AAFF21AF2073
:1050D00000F02CF96846017B8BA0FBF785FF03AA43
:1050E000FF217B2000F022F91FBD0000496E707582
:1050F0007420737461747573283041293A20253007
:1051000032580000496E7075742073746174757341
:10511000283042293A20253032580000496E7075F7
:105120007420706F7274283531293A202530325836
:1051300000000000534344545F436867206D6F6470
:1051400065283731293A2025303258004850442804
:10515000314230293A20253032580000454E56421F
:105160005553204374726C283542293A2025303239
:1051700058000000454E56425553283130293A20F8
:10518000253032580000000050305F544D445343E6
:105190004C4B5370656564283931293A20253032EB
:1051A00058000000E8010020307844343A202530CF
:1051B00032580000307839393A2025303258000012
:1051C000307839413A20253032580000454449446E
:1051D00020526567733A0000454449442052656790
:1051E000732043303A20253032580000454449446A
:1051F00020526567732043313A2025303258000031
:105200004544494420526567732043323A20253093
:1052100032580000454449442052656773204333A7
:105220003A202530325800004544494420526567F1
:10523000732043343A202530325800004544494415
:1052400020526567732043353A20253032580000DC
:105250004544494420526567732043363A2025303F
:105260003258000045444944205265677320433753
:105270003A202530325800004544494420526567A1
:10528000732043383A2025303258000045444944C1
:1052900020526567732043393A2025303258000088
:1052A0004544494420526567732044313A202530F3
:1052B00032580000307841413A2025303258000001
:1052C000307841423A20253032580000307841434E
:1052D0003A20253032580000307841443A202530B9
:1052E000325800003078414520417564696F5F4352
:1052F000485F5374617475735B33313A32345D3A8D
:105300002025303258000000307841462041756435
:10531000696F5F43485F5374617475735B33393AE7
:1053200033325D3A20253032580000003EB515007A
:105330000C460DD001227D21C90013460192029135
:105340000246009590211448FCF79CFA002801D0F1
:1053500001203EBD600617D0A00613D0E0060FD096
:1053600020070BD0600707D0A00703D0E007C017C5
:10537000401C0AE0022008E0032006E0042004E0CC
:10538000052002E0062000E0072029782140C140E6
:10539000297000203EBD0000E801002000B585B066
:1053A0000020039019A000687D220490D2000421FF
:1053B00003A8029201910090012300229021144839
:1053C000FCF760FA6846C07B00906846837B427BAE
:1053D000017B10A0FBF708FE6846017B007C814240
:1053E00011D16846417B407C81420CD16846817B6B
:1053F000807C814207D16846C17BC07C814202D15A
:10540000002005B000BD0120FBE700005449026800
:10541000E8010020696420253032582C25303258AC
:105420002C253032582C25303258000070B500241D
:10543000104D13E071198A78497800F08FF8002830
:105440000AD060002018401983784278A95D0AA02C
:10545000FBF7CAFD012070BD641CE4B26000261891
:10546000A85DFF28E6D121460DA0FBF7BDFD002079
:1054700070BD0000685800086472765F68646D69EA
:105480005F696E6974206661696C6564206174206F
:10549000253032582C253032582C25303258000017
:1054A0006472765F68646D695F696E6974202564F3
:1054B000207265672873292073756363657373664B
:1054C000756C0000F0B585B000220321C02000F00B
:1054D00045F80446C922FF21872000F03FF8054621
:1054E000254300241B4E7D27FF00305D694608736D
:1054F000012003A903460091019022460297C8218A
:105500001548FCF71BFB641C0543A4B2FF2CECD927
:105510009922FF21C12000F021F8284304461022DF
:10552000FF21C22000F01AF804430022FF21C3200B
:1055300000F014F80443C022FF21C42000F00EF84C
:1055400004437C22FF21C52000F008F8204305B069
:10555000F0BD000052590008E8010020F7B584B002
:105560007D2501260C46ED0003AF334600970196DA
:10557000029590210D48049AFCF784F9002812D175
:105580006846007B0699A0430C40011968460173E8
:10559000012300970196029590210448049AFCF794
:1055A000CDFA002800D0012007B0F0BDE8010020AE
:1055B000F8B5012149020927FF064C104D008E0065
:1055C0000300FEF7DEFB05040A1A2535140001224C
:1055D0003846FCF7A6F800221FE001223846FCF707
:1055E000A0F800220EE031463846FCF79AF8012177
:1055F000C9031748FCF78CF8F8BD00223846FCF7C1
:1056000090F8012221463846FCF78BF8012219E078
:1056100000223846FCF785F8012221463846FCF77F
:1056200080F8002229463846FCF77BF80122DAE7A9
:1056300000223846FCF775F8002221463846FCF770
:1056400070F8002229463846FCF76BF80022CAE7BA
:1056500000040048F8B50D4C002506462570671C6F
:105660000DE02078385CFFF7A3FF2078401C80070E
:10567000800F20700520FBF799FF6D1CEDB2B5423D
:10568000EFD30420FFF794FFF8BD000024000020B2
:10569000F8B50D4C002506462570671C0DE02078F6
:1056A000385CFFF785FF2078C01C8007800F2070D2
:1056B0000520FBF77BFF6D1CEDB2B542EFD3042054
:1056C000FFF776FFF8BD00002400002010B50B485E
:1056D000FBF7CAFD0446FAF7B7FD0949FAF76BFD77
:1056E0000B21C943FAF7A4FDFAF7B5FD02460B46B4
:1056F000214604A0FBF778FC002010BD78010020B3
:105700003333534054656D70657261747572653AD8
:105710002025642C2025660010B5000A402839D0C9
:1057200015DC162842D00ADC072839D0082845D0D5
:10573000092838D00C2822D10221032046E018285D
:1057400023D0192835D01C2819D100213AE0472848
:1057500016D00ADC422837D043281ED0442817D060
:1057600045280CD1042101200CE04A2831D05A28C8
:1057700027D05E2803D100210846FBF7B7F910BDFA
:1057800004210220FBF7D0FB10BD022100201DE008
:10579000002100E00121052018E00021042015E08F
:1057A00000210A2012E0002101200FE0002108461C
:1057B00001E000210120FBF74FF910BDFFF786FF44
:1057C00010BD01210C2001E000210B20FBF718F98E
:1057D00010BDFCF7DBFA10BD10B50220FEF758FF34
:1057E000012189020548FBF793FF002802D0FFF74B
:1057F0002DFB10BD0248FFF71DFB10BD0004004843
:10580000204E0000FCF770FAFDF786FEFDF734FD30
:10581000FDF73AFEFDF786FDFDF710FDFDF7ACFD47
:10582000FDF700FEFDF7DCFCFBF73CF9FBF7CEFBD8
:10583000FBF700FAFBF752FBFBF70CF9FBF760F9FB
:10584000FBF782FBFBF780FC04A0FBF7CDFBFBF72B
:10585000F1FBFBF753FBFBF733F9F8E77374617265
:1058600074696E672E2E2E000F030010FF080F03C1
:105870000010FF3711FF1F18FF1F12FFF810FF3035
:1058800011FFA018FFA012FF0017C0801EC0001655
:1058900008081D08082BFF0731FF0949FF09351EBD
:1058A000144B1E1454FF117DFF006AFF8174FFA08A
:1058B000501F12650C007A80808502027108003743
:1058C000FFA64DFFA66780007A50507780800F03B7
:1058D00001C08C880F03007E404052FF2053FF0020
:1058E00058FF3359FFAA25FF1F3DFF1F27FF1F2821
:1058F000FF1F29FF1F3FFF1F40FF1F41FF1F0F0317
:1059000001BCFF06CCFF00C60703B50303B8800047
:10591000B6070310FF0011FF0012FF0013FF00285D
:10592000FF0029FF002AFF002BFF002CFF000F03C0
:105930000022FF003AFF0026FF003EFF0063FF3F0A
:105940007308006040002A0100420100770C08FF44
:10595000FFFF00FFFFFFFFFFFF001190505001000D
:10596000000008130103803420A022EE95A3544CBC
:1059700099260F5054210800010101010101010184
:105980000101010101010101011D007251D01E2020
:105990006E28550000D05200001E8C0A566A30E076
:1059A0005F100428FF0756E03100001E000000FCD5
:1059B0000049544536383031200A2020202000008C
:1059C00000FD00307A1F410F000A202020202020F7
:1059D00001C002031B41488402031112132A302321
:1059E0000907078301000065030C001000011D007A
:1059F0007251D01E206E28550000D05200001E4467
:105A00000C563630E06010EA280FC356E031000033
:105A10001E4709803020E05F10E428FFCF80E0219E
:105A200000003E9E20009051201F3048803600002C
:105A3000205300001A0000000000000000000000D9
:105A40000000000000000000000000000000000056
:105A5000007C0000000000000000010203040607B3
:105A6000080900000000010203040000444D442026
:105A70006465766963652049442042797465312004
:105A80003078253032582C204279746532203078B5
:105A9000253032582C2042797465332030782530F7
:105AA00032582C20427974653420307825303258B1
:105AB0000000000053797374656D20537461747530
:105AC00073204279746531203078253032582C208B
:105AD0004279746532203078253032582C20427952
